:100000000C945E000C9486000C9486000C94860080
:100010000C9486000C9486000C9486000C94860048
:100020000C9486000C9486000C9486000C947A063E
:100030000C9486000C9486000C9486000C94860028
:100040000C9430060C9486000C94FE050C94D80594
:100050000C9486000C9486000C9486000C94860008
:100060000C9486000C948600000000080002010039
:100070000003040700000000000000000000000072
:10008000250028002B0000000000240027002A0083
:10009000040404040404040402020202020203032E
:1000A0000303030301020408102040800102040836
:1000B00010200102040810203607CD0B11241FBEAA
:1000C000CFEFD8E0DEBFCDBF12E0A0E0B1E0ECEEB4
:1000D000FDE102C005900D92AA31B107D9F723E0E6
:1000E000AAE1B2E001C01D92A431B207E1F710E02D
:1000F000CDE5D0E004C02197FE010E94E80CCC358C
:10010000D107C9F70E94A6070C94E90E0C940000D1
:1001100090E0FC01EC55FF4F249180579F4FFC016C
:100120008491882399F090E0880F991FFC01EA5789
:10013000FF4FA591B491FC01E458FF4F8591949134
:100140008FB7F894EC91E22BEC938FBF089508954C
:10015000AF92BF92CF92DF92EF92FF920F931F93D5
:10016000CF93DF936C017B018B01040F151FEB0113
:100170005E01AE18BF08C017D10759F06991D601CA
:10018000ED91FC910190F081E02DC6010995892B3C
:1001900079F7C501DF91CF911F910F91FF90EF90FB
:1001A000DF90CF90BF90AF900895FC01538D448DA8
:1001B000252F30E0842F90E0821B930B541710F012
:1001C000CF96089501970895FC01918D828D98171F
:1001D00061F0A28DAE0FBF2FB11D5D968C91928DF7
:1001E0009F5F9F73928F90E008958FEF9FEF089528
:1001F0002FB7F8948091200290912102A0912202C1
:10020000B09123022FBF80932C0290932D02A093D4
:100210002E02B0932F0284E292E00E94E40097FF46
:1002200026C02FB7F8948091200290912102A091CE
:100230002202B09123022FBF40912C0250912D0237
:1002400060912E0270912F02841B950BA60BB70BA9
:10025000409128025091290260912A0270912B024C
:1002600084179507A607B707B0F28FEF9FEF0895A1
:10027000FC01918D828D981731F0828DE80FF11D70
:10028000858D90E008958FEF9FEF0895FC01918D8B
:10029000228D892F90E0805C9F4F821B91098F7384
:1002A0009927089584E292E00E94460121E0892B7B
:1002B00009F420E0822F089580E090E0892B29F056
:1002C0000E94520181110C9400000895FC01A48D3C
:1002D000A80FB92FB11DA35ABF4F2C91848D90E068
:1002E00001968F739927848FA689B7892C93A0894B
:1002F000B1898C91837080648C93938D848D9813D5
:1003000006C00288F389E02D80818F7D8083089567
:10031000EF92FF920F931F93CF93DF93EC0181E055
:10032000888F9B8D8C8D98131AC0E889F9898081FC
:1003300085FF15C09FB7F894EE89FF896083E8892F
:10034000F98980818370806480839FBF81E090E021
:10035000DF91CF911F910F91FF90EF900895F62EAE
:100360000B8D10E00F5F1F4F0F731127E02E8C8D48
:100370008E110CC00FB607FCFACFE889F98980818D
:1003800085FFF5CFCE010E946601F1CFEB8DEC0F1A
:10039000FD2FF11DE35AFF4FF0829FB7F8940B8FAA
:1003A000EA89FB8980818062CFCFCF93DF93EC0114
:1003B000888D8823B9F0AA89BB89E889F9898C914D
:1003C00085FD03C0808186FD0DC00FB607FCF7CF09
:1003D0008C9185FFF2CF808185FFEDCFCE010E9409
:1003E0006601E9CFDF91CF91089590E0FC01E859D3
:1003F000FF4F2491FC01EC55FF4F3491FC01E05775
:10040000FF4FE491EE23C9F0222339F0233001F1AC
:10041000A8F4213019F1223029F1F0E0EE0FFF1F8E
:10042000E458FF4FA591B4918FB7F894EC91611106
:1004300026C030953E233C938FBF08952730A9F006
:100440002830C9F0243049F7809180008F7D03C0A7
:10045000809180008F7780938000DFCF84B58F7785
:1004600084BDDBCF84B58F7DFBCF8091B0008F77CB
:100470008093B000D2CF8091B0008F7DF9CF3E2B1A
:10048000DACF3FB7F89480911C0290911D02A091A1
:100490001E02B0911F0226B5A89B05C02F3F19F080
:1004A0000196A11DB11D3FBFBA2FA92F982F8827F4
:1004B000BC01CD01620F711D811D911D42E0660FCF
:1004C000771F881F991F4A95D1F708958F929F92A1
:1004D000AF92BF92CF92DF92EF92FF924B015C01FD
:1004E0000E9441026B017C010E9441026C197D094E
:1004F0008E099F09683E734081059105A8F321E0AC
:10050000821A9108A108B10888EEC80E83E0D81EAF
:10051000E11CF11C81149104A104B10429F7FF909E
:10052000EF90DF90CF90BF90AF909F908F90089505
:10053000CF92DF92EF92FF92CF93DF93EC01603284
:1005400082E07807CCF5653B710514F064EB70E050
:10055000898128E830E0281B310987FD3395220F77
:10056000331F220F331F6901330FEE08FF088A8102
:1005700028E532E0281B310987FD3395220F331F10
:10058000220F331F032E000C440B550B2C193D0971
:100590004E095F09DB0177FF02C0B0E0A0E00E94D6
:1005A0006C0C24EB30E040E050E00E94420CC20EA4
:1005B000D31EE41EF51EB601E881EC3070F52981EA
:1005C00088E890E0821B910927FD9395880F991F79
:1005D000880F991F681779077CF02A8188E592E0D7
:1005E000821B910927FD9395880F991F880F991FEA
:1005F000681779070CF4CB010297880F991F4FB742
:10060000F8942E2F30E0F901EE0FFF1FE20FF31FD9
:10061000EF53FD4F928381834FBFDF91CF91FF90C6
:10062000EF90DF90CF900895892B79F4109280009D
:1006300082E0809381001092850010928400B19A2C
:1006400080916F00826080936F000895FC01448167
:1006500055816081718184E292E00E94A80042E0AD
:1006600050E060E371E084E292E00C94A800FC01A9
:1006700080819181009711F00C948A0D0895FC01FE
:1006800080819181009711F00C94D10B60E070E0B3
:10069000CB010895FC0124813581232B39F421E01D
:1006A000FB018081882349F020E007C0808191818F
:1006B0000E94D90E21E0892BB9F7822F08950F935C
:1006C0001F93CF93DF93EC0188819981009759F0B4
:1006D0002A813B812617370730F081E0DF91CF91E7
:1006E0001F910F9108958B016F5F7F4F0E94130E32
:1006F000009759F0998388831B830A832C813D815D
:10070000232B59F7FC011082E8CF80E0E7CFEF926E
:10071000FF920F931F93CF93DF9341155105B1F0D3
:100720007B01EC010C811D81040F151FB8010E9493
:100730005F03882361F0288139818C819D81B70115
:10074000820F931F0E94E20E1D830C8381E0DF91D4
:10075000CF911F910F91FF90EF900895EF92FF922C
:100760000F931F93CF93DF93CDB7DEB728970FB6C4
:10077000F894DEBF0FBECDBF7C01CB014AE08E01F5
:100780000F5F1F4FB8010E94F80BF8010190002085
:10079000E9F73197AF01401B510BB801C7010E9427
:1007A000870328960FB6F894DEBF0FBECDBFDF914A
:1007B000CF911F910F91FF90EF900895FB01019051
:1007C0000020E9F73197AF01461B570B0C948703C4
:1007D000EF92FF920F931F93CF93DF93EC017B0176
:1007E0008A01BA010E945F0328813981811114C0F6
:1007F0002115310519F0C9010E948A0D198218824C
:100800001D821C821B821A82CE01DF91CF911F9123
:100810000F91FF90EF9008951D830C83B701C901DC
:100820000E94E20EF1CFFB01DC0111961C921E9298
:1008300013961C921E92129715961C921E92149754
:100840008617970749F0608171816115710521F064
:10085000448155810C94E8030895FC0111821082B3
:100860001382128215821482FB0101900020E9F7A5
:100870003197AF01461B570B0C94E803CF92DF92E0
:10088000EF92FF920F931F93CF93DF93EC016B01D5
:100890007A014617570720F48D2D6A01E62EF82EAF
:1008A00062E371E0CE010E942D0400910E031091CD
:1008B0000F03C016D10640F5E016F10608F48701D3
:1008C000E0910A03F0910B03E00FF11FF08010821A
:1008D00060910A0370910B036C0D7D1D611571050C
:1008E000E9F0FB0101900020E9F73197AF01461BC9
:1008F000570BCE010E94E80380910A0390910B03ED
:10090000080F191FF801F082CE01DF91CF911F91DE
:100910000F91FF90EF90DF90CF900895888199819B
:10092000009711F00E948A0D198218821D821C8284
:100930001B821A82E1CFEF92FF920F931F93CF9306
:10094000DF93CDB7DEB72F970FB6F894DEBF0FBE9B
:10095000CDBFF82EE92E8B018091E5028C3008F096
:10096000A4C091E0980F9093E5028D8790E0FC0180
:10097000EE0FFF1FE80FF91FEF53FD4F88EB9BE0D1
:10098000928381838D858C3008F040C08F2D0E942A
:1009900088008D85282F30E0F901EE0FFF1FE20F50
:1009A000F31FEF53FD4F9081907C2F2D2F73922BCF
:1009B00090831E861F862CE0622F0E94DC0C829F93
:1009C000B001112430E020E0AB01420F531FFA01C7
:1009D000EE0FFF1FE40FF51FEF53FD4F908196FDC3
:1009E00008C02F5F3F4F2C30310571F790E00E9417
:1009F0001403ED858E2F90E0FC01EE0FFF1FE80F32
:100A0000F91FEF53FD4F80818064808363E371E0C1
:100A1000CE0107960E942D046F2D7E2DCE010796E4
:100A20000E94AE0360E471E0CE0107960E94DE03EF
:100A3000B801CE0107960E94AE03BE01695F7F4FE9
:100A4000CE0101960E941304CE0101960E94260356
:100A5000CE0101960E943703B801CE010D960E9487
:100A6000980268EB7BE080E090E00E946602ED85F2
:100A70008E2F90E0FC01EE0FFF1FE80FF91FEF53E0
:100A8000FD4F80818F7B8083CE0107960E943703C4
:100A90002F960FB6F894DEBF0FBECDBFDF91CF917A
:100AA0001F910F91FF90EF9008958FEF8D876ACF80
:100AB000AF92BF92CF92DF92EF92FF920F931F936C
:100AC000CF93DF93CDB7DEB72C970FB6F894DEBF88
:100AD0000FBECDBF86EEC82E82E0D82E10E000E01B
:100AE0005601F12CE12C65E471E0CE0107960E94DD
:100AF0002D04B701CE0107960E94AE0361E771E0B5
:100B0000CE0107960E94DE03B801CE0107960E942F
:100B1000AE0360E471E0CE0107960E94DE036AE551
:100B200070E0CE0107960E94AE03BE01695F7F4F61
:100B3000CE0101960E941304CE0101960E94260365
:100B4000CE0101960E9437036AE570E0C5010E945C
:100B5000980264E670E080E090E00E946602CE01B8
:100B600007960E9437038FEFE81AF80A83E0A80E71
:100B7000B11C83E0E816F10409F0B5CF0F5F1F4FF9
:100B800089E0C80ED11C0430110509F0A9CF2C96BC
:100B90000FB6F894DEBF0FBECDBFDF91CF911F918E
:100BA0000F91FF90EF90DF90CF90BF90AF9008959E
:100BB0001F920F920FB60F9211242F933F934F93D2
:100BC0005F936F937F938F939F93AF93BF93EF93B5
:100BD000FF9384E292E00E946601FF91EF91BF9142
:100BE000AF919F918F917F916F915F914F913F91C5
:100BF0002F910F900FBE0F901F9018951F920F927C
:100C00000FB60F9211242F938F939F93EF93FF931F
:100C1000E0913402F09135028081E0913A02F09146
:100C20003B0282FD1BC0908180913D028F5F8F73DC
:100C300020913E02821741F0E0913D02F0E0EC5D30
:100C4000FD4F958F80933D02FF91EF919F918F9182
:100C50002F910F900FBE0F901F9018958081F4CFA9
:100C60001F920F920FB60F9211242F933F938F93E1
:100C70009F93AF93BF938091200290912102A09106
:100C80002202B091230230911B0223E0230F2D3763
:100C900058F50196A11DB11D20931B0280932002DF
:100CA00090932102A0932202B093230280911C0210
:100CB00090911D02A0911E02B0911F020196A11DEC
:100CC000B11D80931C0290931D02A0931E02B0934D
:100CD0001F02BF91AF919F918F913F912F910F90E4
:100CE0000FBE0F901F90189526E8230F0296A11DA6
:100CF000B11DD2CF1F920F920FB60F9211242F93D6
:100D00003F934F935F936F937F938F939F93AF9393
:100D1000BF93CF93DF93EF93FF9380911A02C0911B
:100D2000E502D0E087FF24C0109285001092840075
:100D300080911A028F5F80931A0280911A02082E06
:100D4000000C990B8C179D0724F480911A028C30AB
:100D5000C4F18091840090918500049680349C4970
:100D600008F47AC08091840090918500049676C042
:100D700080911A02082E000C990B8C179D07C4F65F
:100D8000E0911A028E2FEE0F990BFC01EE0FFF1F60
:100D9000E80FF91FEF53FD4F808186FFC9CFE09127
:100DA0001A028E2FEE0F990BFC01EE0FFF1FE80FBA
:100DB000F91FEF53FD4F808160E08F730E94F501B2
:100DC000B7CF2091840030918500E0911A028E2FD8
:100DD000EE0F990BFC01EE0FFF1FE80FF91FEF5309
:100DE000FD4F81819281820F931F909389008093A0
:100DF0008800E0911A028E2FEE0F990BFC01EE0F86
:100E0000FF1FE80FF91FEF53FD4F808186FF11C0D0
:100E1000E0911A028E2FEE0F990BFC01EE0FFF1FCF
:100E2000E80FF91FEF53FD4F808161E08F730E943F
:100E3000F501FF91EF91DF91CF91BF91AF919F911C
:100E40008F917F916F915F914F913F912F910F9073
:100E50000FBE0F901F90189580E49CE99093890035
:100E6000809388008FEF80931A02E3CF10922702BD
:100E70001092260288EE93E0A0E0B0E08093280272
:100E800090932902A0932A02B0932B0282E291E070
:100E9000909325028093240285EC90E09093310298
:100EA0008093300284EC90E090933302809332027E
:100EB00080EC90E0909335028093340281EC90E0D6
:100EC000909337028093360282EC90E0909339023F
:100ED0008093380286EC90E090933B0280933A0234
:100EE00010923D0210923E0210923F021092400278
:100EF00062E371E08AE093E00E942D0426EE32E086
:100F00004FEF68EB7BE0F901275F3F4F8091E502EF
:100F10008C30D0F491E0980F9093E502808390E0BC
:100F2000DC01AA0FBB1FA80FB91FAF53BD4F12960C
:100F30007C936E93119733962E173F0739F783E012
:100F40002A30380701F708954083F5CFCF93DF9318
:100F5000CDB7DEB72E970FB6F894DEBF0FBECDBF6C
:100F6000789484B5826084BD84B5816084BD85B584
:100F7000826085BD85B5816085BD80916E00816090
:100F800080936E0010928100809181008260809336
:100F90008100809181008160809381008091800038
:100FA0008160809380008091B10084608093B10063
:100FB0008091B00081608093B00080917A0084605D
:100FC00080937A0080917A00826080937A00809189
:100FD0007A00816080937A0080917A0080688093A3
:100FE0007A001092C100E0913402F091350282E063
:100FF0008083E0913002F09131021082E091320260
:10100000F091330280E1808310923C02E09138023B
:10101000F091390286E08083E0913602F091370248
:10102000808180618083E0913602F0913702808177
:1010300088608083E0913602F09137028081806879
:101040008083E0913602F091370280818F7D80832A
:101050008DE00E9488006DE471E0CE0101960E944F
:101060002D04CE0101960E942603CE0101960E9416
:10107000370380E0282E80E0382E84E292E00E9440
:101080004601892B09F46BC162E371E0CE01019640
:101090000E942D040E94F80097FD0FC08A30910530
:1010A00061F08F83188641E050E0BE01695F7F4F99
:1010B000CE0101960E948703EDCF80910A039091A3
:1010C0000B03009709F4F5C069817A8161157105F8
:1010D00009F4EDC040910C0350910D032D813E8128
:1010E0004217530708F4E3C00E94E20E8D819E81EF
:1010F00090930F0380930E031E821D82CE010196F2
:101100000E94370363E571E08AE093E00E944A039E
:10111000882309F4E5C068E571E0CE0101960E94DC
:101120002D04CE0101960E942603CE0101960E9455
:10113000370316E0812E11E0912E06EE602E02E0BC
:10114000702EB12CA12C83017401D12CC12C68E626
:1011500071E0CE0107960E942D04B501CE010796DD
:101160000E94AE0361E771E0CE0107960E94DE03A4
:10117000B601CE0107960E94AE0363E771E0CE018F
:1011800007960E94DE03D7015C9011967C91B2E035
:10119000EB0EF11C652DCE0107960E94AE03BE0139
:1011A000695F7F4FCE0101960E941304CE01019624
:1011B0000E942603CE0101960E943703F801808128
:1011C0008C3008F043C0852D0E948800D8018C9196
:1011D000282F30E0F901EE0FFF1FE20FF31FEF534E
:1011E000FD4FB52DBF735B2E9081907C592A5082A4
:1011F000F801118212826CE00E94DC0C869FA00133
:10120000112430E020E0BA01620F731FFB01EE0FE2
:10121000FF1FE60FF71FEF53FD4F908196FD08C0AB
:101220002F5F3F4F2C30310571F790E00E9414037F
:10123000D801EC918E2F90E0FC01EE0FFF1FE80F1C
:10124000F91FEF53FD4F80818064808360ED77E06C
:1012500080E090E00E946602CE0107960E9437036C
:10126000BFEFCB1ADB0A0D5F1F4FE3E0CE16D104B0
:1012700009F06DCFFFEFAF1ABF0A26E0820E911C76
:1012800039E0630E711C84E0A816B10409F05BCF4D
:101290000E9458056CE771E0CE0101960E942D0472
:1012A000CE0101960E942603CE0101965EC20E94E5
:1012B0008A0D89819A8190930B0380930A038B8115
:1012C0009C8190930D0380930C038D819E8190935C
:1012D0000F0380930E031A8219821C821B820CCF8B
:1012E00064E971E08AE093E00E944A03882309F4EC
:1012F00048C06AE971E0CE0101960E942D04CE013A
:1013000001960E942603CE0101960E94370361E0F8
:101310008DE00E94F50169E170E080E090E00E94BC
:10132000660260E08DE00E94F50169E170E080E016
:1013300090E00E94660261E08DE00E94F50169E1A3
:1013400070E080E090E00E94660260E08DE00E9424
:10135000F50169E170E080E090E00E9466026AE0D9
:1013600070E080E090E00E9466022114310409F4EC
:1013700084CE0E945201882309F47FCE0E9400008F
:1013800078CE66EA71E08AE093E00E944A038823FF
:1013900099F06DEA71E0CE0101960E942D04CE0114
:1013A00001960E942603CE0101960E9437030E94F7
:1013B00058056AEB71E070CF6AEC71E08AE093E067
:1013C0000E944A03882309F4B5C0A6EEB2E0BE87A6
:1013D000AD87F12CE12C0D851E85D12CC12C6FEC35
:1013E00071E0CE0107960E942D04B601CE0107964A
:1013F0000E94AE0361E771E0CE0107960E94DE0312
:10140000B701CE0107960E94AE0366ED71E0CE01F2
:1014100007960E94DE03F801828178E5472E72E08C
:10142000572E481A510887FD5394440C551C440C00
:10143000551C052C000C66087708818128E830E0EF
:10144000281B310987FD3395C901880F991F880F23
:10145000991F4C01990FAA08BB0880818F3F09F49E
:1014600066C090E0FC01EE0FFF1FE80FF91FEF537D
:10147000FD4F8181928153E0880F991F5A95E1F7C2
:10148000B0E0A0E064E0B595A795979587956A953B
:10149000D1F702969C012F5F3F4F032E000C440BA7
:1014A000550B281939094A095B09A4EBB0E00E94E1
:1014B000610CA3019201281939094A095B090E94AC
:1014C000420CB901CE0107960E94AE03BE01695FCE
:1014D0007F4FCE0101960E941304CE0101960E9417
:1014E0002603CE0101960E9437036AE070E080E097
:1014F00090E00E946602CE0107960E9437033FEFFC
:10150000C31AD30A0D5F1F4F83E0C816D10409F038
:1015100066CF9FEFE91AF90AAD85BE851996BE8799
:10152000AD87B4E0EB16F10409F055CF18CF90E089
:1015300080E0B0CF6EED71E08AE093E00E944A0354
:101540008823C1F165EE71E0CE0101960E942D0461
:10155000CE0101960E942603CE0101960E94370318
:1015600006EE12E06801F12CE12CD601EC918E2FF1
:1015700090E0FC01EE0FFF1FE80FF91FEF53FD4F46
:1015800080818F7B808364E670E080E090E00E9441
:101590006602BFEFEB1AFB0AE3E0CE0ED11CF3E0CC
:1015A000EF16F10411F7075F1F4F23E00A3012070F
:1015B000C9F6D5CE44E050E070E060E0CE0101967F
:1015C0000E943E0469EF71E0CE0101960E944A0339
:1015D000182FCE0101960E943703112311F146E026
:1015E00050E064E070E0CE0101960E943E04CE011E
:1015F00001960E943F036B01CE0101960E943703C2
:101600006CE370E0C6010E949B0460ED77E080E02F
:1016100090E00E9466026AE570E0C6010E949B04A9
:101620009ECE42E050E070E060E0CE0101960E9464
:101630003E046EEF71E0CE0101960E944A03182F1E
:10164000CE0101960E943703112309F491C043E0B3
:1016500050E062E070E0CE0101960E943E04CE01AF
:1016600001960E943F036B01CE0101960E94370351
:1016700044E050E063E070E0CE0101960E943E0439
:10168000CE0101960E943F032B01CE0101960E94DC
:10169000370347E050E064E070E0CE0101960E941D
:1016A0003E04CE0101960E943F034B01CE010196FC
:1016B0000E94370365E471E0CE0107960E942D0475
:1016C000B601CE0107960E94AE0361E771E0CE013C
:1016D00007960E94DE03B201CE0107960E94AE0378
:1016E00060E471E0CE0107960E94DE03B401CE01F2
:1016F00007960E94AE0361E072E0CE0107960E9459
:10170000DE03F601EE0FFF1FEC0DFD1DE40DF51DD0
:10171000EE0FFF1FEA5FFE4F60817181CE010796D9
:101720000E94AE03BE01695F7F4FCE0101960E9409
:101730001304CE0101960E942603CE0101960E9459
:101740003703C201880F991F480E591E39E03C9D8E
:10175000C0013D9D900D1124840D951DB4018A5149
:101760009D4F0E949802CE0107960E943703F7CD45
:1017700069E072E0CE0101960E942D04CE0101962F
:101780000E942603CE0101960E9437036AE073E0AF
:10179000CE0101960E94130483CD8AE093E00C945D
:1017A00037031F93FC0199278827BC01E894119106
:1017B0001032E9F3193010F01E30C8F31B3251F02B
:1017C0001D3249F4689406C00E94030C610F711D1C
:1017D000811D911D119110531A30B0F33EF4909574
:1017E0008095709561957F4F8F4F9F4F1F91089502
:1017F000BB274A3031F4992322F4BDE290958195BC
:101800009F4F0C94190C592F482F372F262F660FF6
:10181000771F881F991F660F771F881F991F620FF8
:10182000731F841F951F660F771F881F991F0895C8
:10183000BB27FB015527AA27880F991FAA1FA417AA
:1018400010F0A41B83955051B9F7A05DAA3308F09E
:10185000A95DA193009779F7B111B1931192CB01D2
:101860000C94320CDC01FC01672F71917723E1F7B6
:10187000329704C07C916D9370836291AE17BF075D
:10188000C8F30895052E97FB1EF400940E94590C8E
:1018900057FD07D00E94AB0C07FC03D04EF40C940C
:1018A000590C50954095309521953F4F4F4F5F4FC4
:1018B000089590958095709561957F4F8F4F9F4FBC
:1018C00008950E94CD0CA59F900DB49F900DA49FEC
:1018D000800D911D11240895B7FF0C94610C0E9496
:1018E000610C821B930B08952F923F924F925F924F
:1018F0006F927F928F929F92AF92BF92CF92DF9220
:10190000EF92FF920F931F93CF93DF93CDB7DEB784
:10191000CA1BDB0B0FB6F894DEBF0FBECDBF099418
:101920002A88398848885F846E847D848C849B846F
:10193000AA84B984C884DF80EE80FD800C811B817D
:10194000AA81B981CE0FD11D0FB6F894DEBF0FBEAC
:10195000CDBFED010895A1E21A2EAA1BBB1BFD010C
:101960000DC0AA1FBB1FEE1FFF1FA217B307E4077E
:10197000F50720F0A21BB30BE40BF50B661F771FD6
:10198000881F991F1A9469F76095709580959095B6
:101990009B01AC01BD01CF010895A29FB001B39F8F
:1019A000C001A39F700D811D1124911DB29F700D68
:1019B000811D1124911D0895991B79E004C0991F80
:1019C000961708F0961B881F7A95C9F78095089599
:1019D000EE0FFF1F0590F491E02D09940F931F93D4
:1019E000CF93DF938230910510F482E090E0E09194
:1019F0001203F091130330E020E0B0E0A0E0309754
:101A000099F42115310509F44AC0281B390B2430FB
:101A10003105D8F58A819B816115710589F1FB013A
:101A200093838283FE0111C0408151810281138121
:101A300048175907E0F04817590799F4109761F0D3
:101A400012960C93129713961C933296CF01DF9146
:101A5000CF911F910F9108950093120310931303D8
:101A6000F4CF2115310551F04217530738F0A90181
:101A7000DB019A01BD01DF01F801C1CFEF01F9CF10
:101A80009093130380931203CDCFFE01E20FF31F57
:101A9000819391932250310939832883D7CF2091A4
:101AA000100330911103232B41F420910201309156
:101AB0000301309311032093100320910001309112
:101AC00001012115310541F42DB73EB740910401C4
:101AD00050910501241B350BE0911003F091110387
:101AE000E217F307A0F42E1B3F0B2817390778F0F5
:101AF000AC014E5F5F4F2417350748F04E0F5F1F54
:101B00005093110340931003819391939FCFF0E082
:101B1000E0E09CCFCF93DF930097E9F0FC01329790
:101B200013821282A0911203B0911303ED0130E0F1
:101B300020E01097A1F420813181820F931F209122
:101B40001003309111032817390709F061C0F09391
:101B50001103E0931003DF91CF910895EA01CE17AE
:101B6000DF07E8F54A815B819E0141155105B1F718
:101B7000E901FB83EA8349915991C40FD51FEC1702
:101B8000FD0761F4808191810296840F951FE90120
:101B900099838883828193819B838A83F0E0E0E04C
:101BA00012968D919C9113970097B9F52D913C91C8
:101BB0001197CD010296820F931F2091100330914F
:101BC00011032817390739F6309751F5109213038E
:101BD00010921203B0931103A0931003BCCFD383D0
:101BE000C28340815181840F951FC817D90761F4C2
:101BF0004E5F5F4F88819981480F591F5183408301
:101C00008A819B81938382832115310509F0B0CFAE
:101C1000F0931303E09312039ECFFD01DC01C0CFCC
:101C200013821282D7CFB0E0A0E0E9E1FEE00C948D
:101C3000760C8C01009751F4CB010E94EE0C8C01C4
:101C4000C801CDB7DEB7E0E10C94920CFC01E60FC1
:101C5000F71F9C0122503109E217F30708F49DC0D9
:101C6000D901CD91DC911197C617D70798F0C530EF
:101C7000D10530F3CE0104978617970708F3C61BEA
:101C8000D70B2297C193D1936D937C93CF010E9480
:101C90008A0DD6CF5B01AC1ABD0A4C018C0E9D1E7D
:101CA000A0911203B0911303512C412CF12CE12C83
:101CB000109731F5809110039091110388159905C3
:101CC00009F05CC04616570608F058C08091000124
:101CD00090910101009741F48DB79EB740910401A6
:101CE00050910501841B950BE817F90708F055C0C2
:101CF000F0931103E0931003F90171836083A0CF87
:101D00008D919C91119712966C90129713967C90DE
:101D10001397A815B90559F56C0142E0C40ED11C02
:101D2000CA14DB0420F1AC014A195B09DA011296EE
:101D3000159780F06282738251834083D9016D933D
:101D40007C93E114F10471F0D7011396FC93EE93A8
:101D5000129776CF22968C0F9D1FF9019183808375
:101D6000F301EFCFF0931303E093120369CF48160A
:101D7000590608F42C017D01D3019ACFCB010E94B2
:101D8000EE0C7C01009749F0AE01B8010E94D00E24
:101D9000C8010E948A0D870153CF10E000E050CFA8
:101DA000FB01DC0102C001900D9241505040D8F778
:101DB0000895FB01DC018D91019080190110D9F388
:101DC000990B0895FB01DC0101900D920020E1F7D1
:101DD000089510E0CDE5D0E004C0FE010E94E80CBB
:0C1DE0002196CE35D107C9F7F894FFCF4B
:101DEC000000140380000D00020003000C000B0027
:101DFC000A000900080007000600050004000000A6
:101E0C0000008801A800D500D5014601E400380186
:101E1C000D0A0054657374696E672070696E20003A
:101E2C0020746F20004D6F76696E672000526561DB
:101E3C00647900696E697400496E697469616C69D2
:101E4C007A696E672E2E2E00417474616368696E18
:101E5C0067200020746F2070696E2000496E6974D1
:101E6C0069616C697A6174696F6E20636F6D706CF7
:101E7C00657465006C69676874004C6967687420E8
:101E8C0075702E2E2E007265626F6F740052656233
:101E9C006F6F74696E672E2E2E005265626F6F74B1
:101EAC0020636F6D706C65746500726561640053BE
:101EBC006572766F20002069732061742000646560
:101ECC007461636800446574616368696E6720734C
:101EDC006572766F732E2E2E00746573740071719B
:101EEC0000207C2070696E2000496E76616C6964FC
:0A1EFC0020636F6D6D616E640000DD
:00000001FF
